:020000040800F2
:100000000000032089710008A9700008D57100085C
:10001000B9700008C1700008C97000080000000035
:10002000000000000000000000000000E170000877
:10003000D170000800000000D57100087557000855
:10004000D5710008D5710008D5710008D571000878
:10005000D5710008D5710008D571000875710008C8
:10006000D5710008D5710008D5710008D571000858
:10007000D5710008D5710008D5710008D571000848
:10008000D5710008D5710008D5710008D571000838
:10009000D5710008D5710008D5710008D571000828
:1000A000D5710008D5710008D5710008D571000818
:1000B000D5710008D5710008F1700008D5710008ED
:1000C000D5710008D5710008D5710008D5710008F8
:1000D000D5710008D5710008D5710008D5710008E8
:1000E000D5710008D5710008D5710008D5710008D8
:1000F000D5710008D5710008D5710008D5710008C8
:10010000D5710008D5710008D5710008D5710008B7
:10011000D5710008D5710008D5710008D5710008A7
:10012000D5710008D5710008D5710008D571000897
:10013000D5710008D5710008D5710008D571000887
:10014000D5710008D5710008D5710008D571000877
:10015000D5710008D5710008D5710008D571000867
:10016000D5710008D5710008D5710008D571000857
:10017000D5710008D5710008D57100080000000095
:10018000D5710008D5710008D5710008D571000837
:10019000D5710008D5710008D5710008D571000827
:1001A000D5710008D5710008D571000890B484B0ED
:1001B00000AF03460A46FB711346BB710023FB6088
:1001C000BB7903F003039B000F2202FA03F3FB60E9
:1001D0001649BB799B08DBB21846144ABB799B08C9
:1001E000DBB2023352F82320FB68DB431A40831C46
:1001F00041F823200D48BB799B08DBB21C460B4A13
:10020000BB799B08DBB2023352F82320F979BB7922
:1002100003F003039B0001FA03F31A43A31C40F805
:10022000232000BF1037BD4690BC70470038014006
:1002300080B582B000AF7860482279680F4814F02A
:1002400009FC0F4BD3F830310E4A53630C4BD3F8F3
:1002500034310C4A93670A4BD3F83831094AC2F853
:10026000BC30084BD3F8BC30032B02D1012008F07E
:10027000D3FA002318460837BD4680BDFC0900208C
:1002800008090020480A002080B582B000AF7860DD
:1002900048220449786814F0DDFB0023184608372B
:1002A000BD4680BDFC09002080B500AF4FF4A072B0
:1002B00000210A4814F0CCFC4FF4CC72002108480D
:1002C00014F0C6FC00F09EFF4DF29303482205494E
:1002D000054805F067FA0346184680BD0809002066
:1002E000480A0020890200083102000880B485B065
:1002F00000AFF860B9607A60FB687A685A62FB68A0
:10030000BA681A6000BF1437BD465DF8047B7047B9
:1003100080B582B000AF786039603A687968034888
:10032000FFF7E4FF00BF0837BD4680BD480A002044
:1003300080B483B000AF78600D4A7B6893627B68BD
:100340000C4A82FB03129211DB17D31A084AD362BC
:10035000074B1B6C002B05D1074A7B6892FBF3F31C
:10036000034A136400BF0C37BD465DF8047B704739
:10037000480A0020D34D621040420F0080B483B081
:1003800000AF78600E4A7B68D3667B680D4A82FBBB
:1003900003129211DB17D31A094A1367084BD3F8DB
:1003A0008430002B06D1084A7B6892FBF3F3044AA1
:1003B000C2F8843000BF0C37BD465DF8047B70473F
:1003C000480A0020D34D621040420F0080B483B031
:1003D00000AF78600F4A7B68C2F8B0307B680E4A85
:1003E00082FB03129211DB17D31A0A4AC2F8B43007
:1003F000084BD3F8C830002B06D1084A7B6892FB23
:10040000F3F3044AC2F8C83000BF0C37BD465DF8AC
:10041000047B7047480A0020D34D621040420F0011
:1004200080B483B000AF7860094A7B68C2F8283195
:100430007B68084A82FB03129211DB17D31A044A25
:10044000C2F82C3100BF0C37BD465DF8047B704705
:10045000480A0020D34D621080B400AF074BD3F898
:10046000B83003F48073002B14BF01230023DBB2E8
:100470001846BD465DF8047B704700BF480A00205F
:1004800080B400AF064B1B6B03F48073002B14BFCA
:1004900001230023DBB21846BD465DF8047B70479C
:1004A000480A002080B400AF064B5B6F03F48073F2
:1004B000002B14BF01230023DBB21846BD465DF8B4
:1004C000047B7047480A002080B483B000AF00234B
:1004D0007B60204B5B6F03F48073002B02D01D4BBD
:1004E000DB6F7B601B4B1B6B03F48073002B07D00F
:1004F000184B9A6B7B689A4202D9164B9B6B7B60B8
:10050000144BD3F8B83003F48073002B09D0114B8F
:10051000D3F8C0207B689A4203D90E4BD3F8C03081
:100520007B600C4BD3F8FC3003F48073002B09D0B4
:10053000084BD3F804217B689A4203D9054BD3F8C2
:1005400004317B607B6818460C37BD465DF8047B40
:10055000704700BF480A002080B582B000AF7860C5
:1005600039603A6879680348FFF7C0FE00BF083772
:10057000BD4680BD8C0A002080B582B000AF786097
:1005800039603A6879680348FFF7B0FE00BF083762
:10059000BD4680BDD00A002080B586B000AF78602F
:1005A00039607B68B3F90430DB03FB607B68B3F927
:1005B0000630DB033B617B68B3F90830DB037B610A
:1005C0007B681B6898B27B685B6A59007B680C3358
:1005D00007F10C0209F0A6FCFA683B681B685B1087
:1005E000D31AFB603A693B6804331B685B10D31A6B
:1005F0003B617A693B6808331B685B10D31A7B61E7
:100600007B681B6898B27B685B6A59007B6818330B
:1006100007F10C0209F086FC7B681B6B43F020029B
:100620007B681A6300BF1837BD4680BD80B582B0B5
:1006300000AF78607B68002B04D00C2203497868F7
:1006400014F008FA00BF0837BD4680BDFC09002041
:1006500080B582B000AF786039600C2279681048AC
:1006600014F0C6F90346002B08D00C2279680C4818
:1006700014F0F0F90A490B48FFF78EFF0A4A3B686D
:10068000C2F8BC30094A3B68C2F838310022082160
:10069000082008F0B5FA00BF0837BD4680BD00BF8E
:1006A000FC090020D00A0020480A00200809002088
:1006B00080B483B000AF7860044A7B68C2F83C31F4
:1006C00000BF0C37BD465DF8047B70470809002069
:1006D00080B582B000AF786039607B68002B10D0A5
:1006E0000C2279680F4814F083F90346002B08D0D8
:1006F0000C2279680B4814F0ADF90A490A48FFF753
:100700004BFF0A4A3B689367094A3B68C2F8343199
:1007100000221021102008F073FA00BF0837BD46F0
:1007200080BD00BF1C0A00208C0A0020480A00205F
:100730000809002080B582B000AF7860074A7B6866
:100740009367074A7B68C2F83431002210211020D9
:1007500008F056FA00BF0837BD4680BD480A0020A1
:100760000809002080B584B000AFF860B9607A60F5
:10077000FB68002B21D07B6803F00103002B04D021
:10078000FB681B68154AC2F814317B6803F002034A
:10079000002B04D0FB685B68104AC2F818317B68F4
:1007A00003F00403002B04D0FB689B680B4AC2F8DB
:1007B0001C310B490B48FFF7EFFE0B4ABB689367F0
:1007C000064ABB68C2F8343100221021102008F01C
:1007D00017FA00BF1037BD4680BD00BF08090020D2
:1007E0001C0A00208C0A0020480A002080B582B034
:1007F00000AF786039607B68002B10D00C227968DC
:10080000194814F0F5F80346002B08D00C2279683B
:10081000154814F01FF914491448FFF7BDFE134A98
:100820003B685363124A3B68C2F830310F4BD3F830
:10083000E430002B06D00D4BD3F8E4300C4AC2F85C
:100840000C3104E00A4B4FF4D812C3F80C210022FB
:100850000421042008F0D4F9054B0122C3F810212B
:1008600000BF0837BD4680BD080A0020480A0020A6
:100870000809002080B483B000AF0A4BD3F81031D0
:10088000012B0CBF01230023DBB27B60054B002250
:10089000C3F810217B6818460C37BD465DF8047B11
:1008A000704700BF0809002080B582B000AF7860B3
:1008B00039607B68002B04D00C220849786814F05A
:1008C000C9F83B68002B04D0054BD3F80C213B68DA
:1008D0001A6000BF0837BD4680BD00BF080A00206F
:1008E0000809002080B584B000AFF860B9607A6074
:1008F000BB6803F02003002B1ED1FB681B681AB2F3
:10090000254BA3F84820FB6804331B681AB2224B1E
:10091000A3F84A20FB6808331B681AB21E4BA3F8E1
:100920004C201D4B5B6F43F080031B4A53671B49F0
:100930001B48FFF731FE1CE0FB681B68164AD365B5
:10094000FB685B68144A1366FB689B68124A53662F
:10095000114B5B6F43F020030F4A5367BB6803F0F2
:1009600003030D4A9367BB6803F003030D4AC2F803
:100970003431094B5B6F43F4A073074A5367064B4E
:10098000DB6F054AC2F88030034A7B68D3670023D7
:1009900018461037BD4680BD480A00201C0A0020BA
:1009A0008C0A00200809002080B582B000AF786072
:1009B0003960062279680C4814F04CF80B4B1B6B1D
:1009C00043F4E073094A1363084B9B6B074AD363F4
:1009D000064A3B68936306490448FFF7DDFD0023A0
:1009E00018460837BD4680BD4C0A0020480A002042
:1009F000080A002080B588B000AFF860B9607A605E
:100A0000BB6803F02003002B23D1F86800F0BAFB89
:100A100007F11403184600F095FB7B691AB22A4BC4
:100A2000A3F88C20BB691AB2274BA3F88E20FB6970
:100A30001AB2254BA3F8902024492548FFF7ACFDB6
:100A4000214BD3F8B83043F080031F4AC2F8B830C6
:100A500022E0FB681B681C4AC2F8A030FB685B6898
:100A6000194AC2F8A430FB689B68174AC2F8A8303C
:100A7000154BD3F8B83043F02003134AC2F8B8300E
:100A8000BB6803F00303104AC2F8BC30BB6803F034
:100A90000303104AC2F838310B4BD3F8C0300A4A6E
:100AA000C2F8C430084A7B68C2F8C030064BD3F89D
:100AB000B83043F4A073044AC2F8B8300023184693
:100AC0002037BD4680BD00BF480A0020FC09002039
:100AD000D00A00200809002080B483B000AF7860FD
:100AE00039600E4A7B68C2F8E4300C4BD3F8FC3016
:100AF00043F4E073094AC2F8FC30084BD3F80431E0
:100B0000064AC2F80831054A3B68C2F8043100239E
:100B100018460C37BD465DF8047B7047480A002034
:100B200080B584B000AFF860B9607A601022F968CF
:100B30000E4813F08FFF0E4A7B68C2F824310C4B2D
:100B4000D3F8203143F4E073094AC2F82031084B4E
:100B5000D3F82021BB6803F400731343044AC2F89E
:100B60002031002318461037BD4680BD580B0020A9
:100B7000480A002080B400AF034B00225A6700BF30
:100B8000BD465DF8047B7047480A002080B400AF82
:100B9000044B0022C3F8B82000BFBD465DF8047BBB
:100BA000704700BF480A002080B400AF044B002209
:100BB000C3F8202100BFBD465DF8047B704700BF2D
:100BC000480A002080B400AF034B00221A6300BF24
:100BD000BD465DF8047B7047480A002080B588B0A8
:100BE00000AFF860B9607A600023FB610023BB614D
:100BF0001CE04A49BA6913465B0013449B000B444E
:100C000004331A68FB689A420BD04449BA69134608
:100C10005B0013449B000B4408331A68BB689A427C
:100C200001D1162376E0BB690133BB613B4B1A68E7
:100C3000BB699A42DDDC394B1B68132B62DC002355
:100C4000BB61364B1B68002B38D002E0BB69013317
:100C5000BB61324B1A68BB699A420BDD2F49BA69F6
:100C600013465B0013449B000B4408331A68BB68AF
:100C70009A42EBDB294B1A68BB699A421ED0274B7C
:100C80001B687B6116E07B695A1E244879690B4614
:100C90005B000B449B00C118204813465B001344C3
:100CA0009B00C2180B1D043207CA83E807007B694A
:100CB000013B7B617A69BB699A42E4DC1749BA69F6
:100CC00013465B0013449B000B440433FA681A601C
:100CD0001249BA6913465B0013449B000B44083366
:100CE000BA681A600D49BA6913465B0013449B0049
:100CF0000B440C337A681A60084B1B680133074AAF
:100D0000136006E0064A0749062009F09FFD0C2300
:100D1000FB61FB6918462037BD4680BD08090020ED
:100D2000B8880108FC88010880B485B000AF7860FD
:100D30000023FB6035E02149FA6813465B00134449
:100D40009B000B4404331A687B689A4226D1FB68E7
:100D50000133BB6016E0BB685A1E184913465B009E
:100D600013449B0019441548BA6813465B001344AA
:100D70009B00C2180B1D043207CA83E80700BB683A
:100D80000133BB600D4B1A68BB689A42E3DC0B4B26
:100D90001B68013B094A1360002308E0FB6801332C
:100DA000FB60064B1A68FB689A42C4DC00231846B5
:100DB0001437BD465DF8047B704700BF080900206A
:100DC00080B584B000AF00237B60354B1B6B03F014
:100DD0004003002B03D07B6843F002037B60304B61
:100DE0005B6F03F04003002B03D07B6843F00103EB
:100DF0007B602B4BD3F8B83003F04003002B03D0BB
:100E00007B6843F004037B60254BD3F8FC3003F090
:100E10004003002B03D07B6843F008037B60204B2A
:100E2000D3F8203103F04003002B03D07B6843F05C
:100E300010037B600023FB600023BB6023E01949A3
:100E4000BA6813465B0013449B000B440C331A68CA
:100E50007B681340002B13D01249BA6813465B001D
:100E600013449B000B4404331B680D4898473860BB
:100E70003B68002B04D0FB68002B01D13B68FB6072
:100E8000BB680133BB60074B1A68BB689A42D6DC6B
:100E900000F00AF8FB6818461037BD4680BD00BF59
:100EA000480A00200809002080B483B000AF002366
:100EB0007B60484B1B6B03F04003002B08D0454B75
:100EC0001B6B43F01003434A1363424B9B6B7B60E5
:100ED000404B5B6F03F04003002B0CD03D4B5B6F2E
:100EE00043F010033B4A53673A4BDB6F7A689342F7
:100EF00038BF13467B60374BD3F8B83003F040035C
:100F0000002B0FD0334BD3F8B83043F01003314AE5
:100F1000C2F8B8302F4BD3F8C0307A68934238BF4C
:100F200013467B602B4BD3F8FC3003F04003002BBF
:100F30000FD0284BD3F8FC3043F01003254AC2F8F9
:100F4000FC30244BD3F804317A68934238BF1346FF
:100F50007B60204BD3F8203103F04003002B0FD0EF
:100F60001C4BD3F8203143F010031A4AC2F8203149
:100F7000184BD3F824317A68934238BF13467B600C
:100F8000144B1B6B23F04003124A1363114B5B6F2E
:100F900023F040030F4A53670E4BD3F8B83023F0C9
:100FA00040030C4AC2F8B8300A4BD3F8FC3023F0A7
:100FB0004003084AC2F8FC30064BD3F8203123F036
:100FC0004003044AC2F8203100BF0C37BD465DF82B
:100FD000047B7047480A002080B584B000AFF860F9
:100FE000B9607A60FB68002B04D00C220B49F868CA
:100FF00013F030FD7B68002B03D0094BDA6F7B6860
:101000001A60BB68002B04D0054B9B6F5AB2BB68BB
:101010001A7000BF1037BD4680BD00BFA40A002073
:10102000480A002080B584B000AFF860B9607A60EB
:101030000C220B49F86813F00DFD7B68002B03D0E0
:10104000084B9A6B7B681A60BB68002B04D0054B79
:101050005B6B5AB2BB681A7000BF1037BD4680BDCB
:10106000600A0020480A002080B582B000AF786096
:101070000C220449786813F0EDFC00BF0837BD4628
:1010800080BD00BF600A002080B584B000AFF8606A
:10109000B9607A600C221149F86813F0DBFC7B68B8
:1010A000002B04D00E4BD3F8C0207B681A60BB68BD
:1010B000002B0ED00B4BD3F83C31002B03D0BB6878
:1010C00000221A7005E0064BD3F8BC305AB2BB6858
:1010D0001A7000BF1037BD4680BD00BFE80A00206F
:1010E000480A00200809002080B400AF034B5B6B66
:1010F0001846BD465DF8047B704700BF480A0020D3
:1011000080B400AF074BD3F83C31002B01D0002353
:1011100002E0054BD3F8BC301846BD465DF8047BB1
:10112000704700BF08090020480A002080B400AFC3
:10113000034B9B6F1846BD465DF8047B704700BFAC
:10114000480A002080B485B000AF78600023FB60BF
:101150000DE0FB689B007A681A440949FB684E332E
:101160009B000B445B681360FB680133FB60FB680A
:10117000022BEEDD00BF1437BD465DF8047B7047DF
:10118000480A002080B584B000AF78600023FB607F
:101190000CE0FB689B007A6813441A681649FB68E8
:1011A0004C3341F82320FB680133FB60FB68022BC2
:1011B000EFDD114BD3F89031012B05D10F4A79683F
:1011C0000F4808F00DFF13E00023FB600DE0FB6803
:1011D0009B007A6813441A680749FB684E339B00EA
:1011E0000B445A60FB680133FB60FB68022BEEDDA9
:1011F00000BF1037BD4680BD480A0020840B002088
:10120000900B002080B582B000AF00237B600BE024
:101210001A4A7B685A339B00134404334FF0000290
:101220001A607B6801337B607B68082BF0DD242229
:101230000021134813F00CFD00237B6014E07B6851
:101240009B000E4A5A339B00134404334FF07E52E6
:101250001A607B689B00094A52334FF0804142F884
:1012600023107B6801337B607B68022BE7DD00F095
:1012700009F800BF0837BD4680BD00BF480A0020FE
:10128000900B002080B400AF044B0022C3F89021E3
:1012900000BFBD465DF8047B704700BF480A0020D0
:1012A00080B586B000AF01214FF4800005F008FE44
:1012B0000121022005F0E4FD4FF480633B6102232D
:1012C0003B7503237B750123BB750023FB7504224B
:1012D0000A211B4807F062F807F110031946184865
:1012E00006F0CEFF4FF400633B6104220B2114484B
:1012F00007F054F807F110031946114806F0C0FF33
:10130000104807F0B1FC0023BB804BF6FF73FB8055
:1013100000233B814FF480637B814FF48043BB818A
:10132000094B3B600121074807F09AFD3B461946EF
:10133000044807F0D3FC00BF1837BD4680BD00BF8E
:101340000004024000580040801A060080B586B0B4
:1013500000AF0346FB710121154807F0C1FD0121D3
:10136000134807F01BFE0021114807F017FE104834
:1013700007F07AFC0023BB814BF6FF73FB8100234F
:101380003B824FF480637B824FF48043BB82094BE6
:10139000BB600121064807F063FD07F10803194609
:1013A000034807F09BFC012318461837BD4680BD53
:1013B00000580040801A060080B586B000AF3B6040
:1013C0000346FB710B46BB711346BB800023FB75C4
:1013D00000233B6100F088FB0346FB8100233B6157
:1013E000BA88B979F8793B6800F04EF803463B615A
:1013F0003B69002B0ED0FB89002B0BD0FB7D5A1CC8
:10140000FA75042B01D93B6905E0FB89184604F005
:101410006BF9E3E73B6918461837BD4680BD00BF4E
:1014200080B586B000AF3B600346FB710B46BB71D5
:101430001346BB800023FB7500233B6100F054FB87
:101440000346FB8100233B61BA88B979F8793B6890
:1014500000F0E8F803463B613B69002B0ED0FB89A6
:10146000002B0BD0FB7D5A1CFA75042B01D93B696C
:1014700005E0FB89184604F037F9E3E73B691846B5
:101480001837BD4680BD00BF80B586B000AF3B6059
:101490000346FB710B46BB711346BB8000233B61C7
:1014A00000237B61594BFB60584BFB6009E0FB68F4
:1014B0005A1EFA60002B04D10120FFF747FF0346B4
:1014C000A0E04FF40031524807F0C0FD0346002B66
:1014D000EDD101214E4807F0E3FC4FF46173FB604E
:1014E00009E0FB685A1EFA60002B04D10220FFF7C6
:1014F0002DFF034686E04749454807F0A7FD034610
:10150000012BEED1FB795B00DBB20022194640488B
:1015100007F006FD4FF46173FB6009E0FB685A1E9B
:10152000FA60002B04D10320FFF710FF034669E0A7
:101530003949374807F08AFD0346012BEED11421C3
:10154000334807F06BFD1821314807F067FD4FF471
:101550006173FB6009E0FB685A1EFA60002B04D13E
:101560000420FFF7F3FE03464CE02C49284807F01F
:101570006DFD0346012BEED1BB791946244807F0D7
:101580002FFD00237B611FE04FF46173FB6009E0D6
:10159000FB685A1EFA60002B04D10520FFF7D6FE27
:1015A00003462FE01D491A4807F050FD0346012B62
:1015B000EED13A687B6913441B781946144807F04A
:1015C0000FFD7B6901337B61BA887B699A42DBD866
:1015D0004FF46173FB6009E0FB685A1EFA60002B50
:1015E00004D10620FFF7B2FE03460BE00C49084881
:1015F00007F02CFD0346012BEED10121044807F032
:101600006FFC3B6918461837BD4680BDB01E04000C
:10161000005800400100001002000010800000107F
:101620000400001090B587B000AF3B600346FB712B
:101630000B46BB711346BB8000237B6100233B61DB
:10164000B14BFB60B04BFB6009E0FB685A1EFA60CF
:10165000002B04D10720FFF779FE034627E24FF461
:101660000031AA4807F0F2FC0346002BEDD101211E
:10167000A64807F015FC4FF46173FB6009E0FB68B6
:101680005A1EFA60002B04D10820FFF75FFE0346C4
:101690000DE29F499D4807F0D9FC0346012BEED18E
:1016A000FB795B00DBB200221946984807F038FC52
:1016B0004FF46173FB6009E0FB685A1EFA60002B6F
:1016C00004D10920FFF742FE0346F0E191498F481B
:1016D00007F0BCFC0346012BEED114218B4807F028
:1016E0009DFC1821894807F099FC4FF46173FB6059
:1016F00009E0FB685A1EFA60002B04D10A20FFF7AC
:1017000025FE0346D3E18449804807F09FFC034649
:10171000012BEED1BB7919467C4807F061FC4FF4F0
:101720006173FB6009E0FB685A1EFA60002B04D16C
:101730000B20FFF70BFE0346B9E17749734807F02A
:1017400085FC0346012BEED10121704807F0A8FB70
:101750004FF46173FB6009E0FB685A1EFA60002BCE
:1017600004D10C20FFF7F2FD0346A0E16849674869
:1017700007F06CFC0346012BEED1FB795B00DBB27A
:1017800001221946614807F0CBFB4FF46173FB60FF
:1017900009E0FB685A1EFA60002B04D10D20FFF708
:1017A000D5FD034683E15B49584807F04FFC0346EB
:1017B000012BEED1BB88012B2CD10021534807F01F
:1017C000CDFB1421514807F029FC18214F4807F0A0
:1017D00025FC01214D4807F083FB4FF46173FB604A
:1017E00009E0FB685A1EFA60002B04D10E20FFF7B7
:1017F000ADFD03465BE14949444807F027FC034639
:10180000012BEED1414807F0FBFB03461A463B682B
:101810001A7026E1BB88022B3BD100213B4807F020
:101820009DFB3A4A394B1B889BB243F400639BB241
:1018300013801421354807F0F1FB1821334807F0D5
:10184000EDFB4FF46173FB6009E0FB685A1EFA6020
:10185000002B04D10F20FFF779FD034627E1304923
:101860002A4807F0F3FB0346012BEED1012127485C
:1018700007F036FB254807F0C3FB03461A463B68D2
:101880001A703B685C1C214807F0BAFB03462370C2
:10189000E7E0BB88032B5ED114211C4807F0BEFB98
:1018A00018211A4807F0BAFB4FF46173FB6009E096
:1018B000FB685A1EFA60002B04D11020FFF746FD8A
:1018C0000346F4E01649114807F0C0FB0346012B1C
:1018D000EED100210D4807F041FB0C4807F090FBCA
:1018E00003461A463B681A700121084807F0F8FAC7
:1018F0003B685C1C054807F083FB034623704FF4EC
:101900006173FB6018E000BFB01E04000058004087
:1019100001000010020000108000001040000010C4
:1019200004000010FB685A1EFA60002B04D111203D
:10193000FFF70CFD0346BAE05F49604807F086FBFD
:101940000346012BEED13B689C1C5C4807F058FB1A
:101950000346237085E01421584807F05FFB1821E7
:10196000564807F05BFB00237B6176E0BB88033BB6
:101970001A467B699A4250D14FF46173FB6009E0CB
:10198000FB685A1EFA60002B04D11020FFF7DEFC22
:1019900003468CE04A49494807F058FB0346012BAF
:1019A000EED10021454807F0D9FA7B695A1C7A61CB
:1019B0003A68D418414807F023FB034623700121FD
:1019C0003E4807F08DFA7B695A1C7A613A68D41850
:1019D0003A4807F015FB034623704FF46173FB6030
:1019E00009E0FB685A1EFA60002B04D11120FFF7B2
:1019F000ADFC03465BE03049304807F027FB034667
:101A0000012BEED17B695A1C7A613A68D4182B48B5
:101A100007F0F6FA0346237023E04FF46173FB608E
:101A200009E0FB685A1EFA60002B04D11220FFF770
:101A30008DFC03463BE02049204807F007FB0346A6
:101A4000012BEED13A687B69D4181C4807F0D8FA0C
:101A5000034623707B6901337B61BA887B699A42B4
:101A600084D81749154807F025FB164BFB6009E0A1
:101A7000FB685A1EFA60002B04D11320FFF766FCA6
:101A8000034614E04FF400310C4807F0DFFA034638
:101A9000002BEDD10121094807F060FA074A074BF6
:101AA0001B889BB223F400639BB213803B691846EA
:101AB0001C37BD4690BD00BF4000001000580040DC
:101AC00004000010B01E040080B483B000AF0346D1
:101AD000FB80044AFB88138000BF0C37BD465DF8CD
:101AE000047B70470000002080B400AF034B1B88CC
:101AF0001846BD465DF8047B704700BF000000201B
:101B000080B584B000AF0346FB71294B93F82430B5
:101B1000002B1CD0FB79002B02D00223FB7301E0C9
:101B20000023FB73224B5B681878214B1B68597CA0
:101B300007F10F030122FFF73FFC0346002B02D001
:101B40004FF0FF3330E0FA7B194B5A742BE0184BFF
:101B50009B7A002B02D14FF0FF3325E0FB79002B5D
:101B600005D0134B5B7C002B01D000231CE0FB79DC
:101B7000002B02D00123FB7301E00023FB730C4B0D
:101B80005B6818780A4B1B68597C07F10F03012228
:101B9000FFF712FC0346002B02D04FF0FF3303E0A7
:101BA000FA7B034B5A74002318461037BD4680BD9C
:101BB0000400002080B584B002AF0023FB7126E052
:101BC000184B1B685B7BFA799A421CD0154B1B683B
:101BD0001B7EFA799A4216D0124B5B681878BB1DAF
:101BE000F9790122FFF71CFC0346002B02D04FF0CD
:101BF000FF3313E0FB79BA7900920B4A00210420ED
:101C000008F024FE00E000BFFB790133FB71054BB7
:101C10005B681B79FA799A42D2D3002318460837B9
:101C2000BD4680BD040000206C89010880B584B0E9
:101C300000AF786080233B725C4B5B6818785B4B2D
:101C40001B68597D07F108030122FFF7B5FB034626
:101C5000002B02D04FF0FF33A3E0642003F044FDDB
:101C600000233B72514B5B681878504B1B68597DC1
:101C700007F108030122FFF79FFB0346002B02D068
:101C80004FF0FF338DE0494B0022DA7448233B725A
:101C9000464B5B681878454B1B68197A07F10803B7
:101CA0000122FFF789FB0346002B02D04FF0FF33E0
:101CB00077E03E4BFF229A723C4BFF221A723B4B5D
:101CC000FF225A72394BFF22DA72384B4FF6FF72FD
:101CD000DA81364BFF221A74344BFF229A74334B4D
:101CE0004FF6FF721A85314B01221A732F4B0122D6
:101CF00083F822202D4B002283F823202B4B002237
:101D00005A752A4B00221A750C220021284812F01D
:101D10009FFF264B002283F82420244B002283F8C7
:101D20002520224B0022DA844FF4FA6000F0BEFA3C
:101D30000346002B02D04FF0FF3332E0022000F0C8
:101D400041FB0346002B02D04FF0FF3329E02A204D
:101D500000F0DEFB0346002B02D04FF0FF3320E003
:101D6000322000F03DFC0346002B02D04FF0FF3341
:101D700017E0002000F06AFD0346002B02D04FF070
:101D8000FF330EE002F0FAFE0A2000F097FC034653
:101D9000002B02D04FF0FF3303E0002000F0A8FD3D
:101DA000002318461037BD4680BD00BF0400002048
:101DB0001A00002080B584B000AF0346FB80FB888A
:101DC000282B02D94FF0FF338CE0FB88002B1CD16D
:101DD000002001F047F900233B7307237B73434B3B
:101DE0005B681878414B1B68597D07F10C03022290
:101DF000FFF7E2FA0346002B02D04FF0FF3371E009
:101E00003A4B00221A7500236CE0012001F02AF9F8
:101E1000FB88012B02D102233B7332E0FB88022BAB
:101E200002D103233B732CE0FB88052B02D804234B
:101E30003B7326E0FB880A2B02D805233B7320E086
:101E4000FB88142B02D806233B731AE0FB88282B4F
:101E500002D807233B7314E0FB88502B02D80823D9
:101E60003B730EE0FB88A02B02D809233B7308E0EC
:101E7000FB88B3F5A07F02D80A233B7301E00B2354
:101E80003B731A4B5B681878184B1B68597A07F13B
:101E90000C030122FFF790FA0346002B02D04FF00B
:101EA000FF331FE020233B73104B5B6818780F4B08
:101EB0001B68597D07F10C030122FFF77DFA0346E9
:101EC000002B02D04FF0FF330CE0084B08229A722F
:101ED000064B00221A73054B01221A75002000F0F0
:101EE000B5FC002318461037BD4680BD0400002015
:101EF00080B584B000AF78603960214B9B7A03F0E5
:101F00000803002B02D14FF0FF3334E01C4B5B6819
:101F100018781B4B1B68D97B07F108030622FFF7D3
:101F20007FFA0346002B02D04FF0FF3323E03B7AC9
:101F30001B021AB27B7A1BB213431AB27B681A8057
:101F40007B680233BA7A120211B2FA7A12B20A43E9
:101F500012B21A807B6804333A7B120211B27A7B88
:101F600012B20A4312B21A803B68002B02D03868C2
:101F700003F0CEFB002318461037BD4680BD00BFDE
:101F80000400002080B584B000AF78603960284B31
:101F90009B7A002B02D14FF0FF3345E0244B5B6866
:101FA0001878234B1B68197C07F10C030222FFF7FA
:101FB00037FA0346002B02D04FF0FF3334E03B7B6F
:101FC0001B021AB27B7B1BB21343FB813B68002BC5
:101FD00002D0386803F09CFBB7F90E3007EE903A58
:101FE000B8EEE77A124B5B68B3F9083007EE903A27
:101FF000F8EEE77A77EE676A0D4B5B68DB8807EEF1
:10200000903AB8EEE77AC6EE877A9FED0A7A77EED5
:10201000877A9FED097A67EE877AFDEEE77A17EE09
:10202000902A7B681A60002318461037BD4680BD91
:102030000400002000000C420000804780B582B000
:1020400000AF7E4B9B7A002B02D14FF0FF33F1E0C3
:102050000023FB71794B5B681878784B1B68597CBF
:10206000FB1D0122FFF7A8F90346002B02D04FF019
:10207000FF33DFE0714B5B681878704B1B68597950
:10208000FB1D0122FFF798F90346002B02D04FF009
:10209000FF33CFE0694B5B681878684B1B68197990
:1020A000FB1D0122FFF788F90346002B02D04FF0F9
:1020B000FF33BFE0614B93F82430002B5CD00C233E
:1020C000FB715E4B5B6818785C4B1B681979FB1DD4
:1020D0000122FFF771F90346002B02D04FF0FF33C6
:1020E000A8E0322003F000FBC023FB71534B9B7A26
:1020F00003F00103002B04D0FB7943F02003DBB293
:10210000FB714E4B5B6818784C4B1B681979FB1DB3
:102110000122FFF751F90346002B02D04FF0FF33A5
:1021200088E0464B5B7C002B02D00223FB7101E070
:102130000023FB71414B5B681878404B1B68597C4E
:10214000FB1D0122FFF738F90346002B02D04FF0A8
:10215000FF336FE00023FB71384B5B681878374B17
:102160001B685979FB1D0122FFF726F90346002B56
:102170005FD04FF0FF335DE00423FB712F4B5B68B2
:1021800018782E4B1B681979FB1D0122FFF714F9F3
:102190000346002B02D04FF0FF334BE0274B9B7CD4
:1021A000002B05D1254B9B7A03F00103002B02D1B4
:1021B0004023FB7101E06023FB71204B5B681878C2
:1021C0001E4B1B681979FB1D0122FFF7F5F803462A
:1021D000002B02D04FF0FF332CE0322003F084FAC2
:1021E000164B5B7C002B02D00123FB7101E0002326
:1021F000FB71124B5B681878104B1B68597CFB1DF8
:102200000122FFF7D9F80346002B02D04FF0FF332D
:1022100010E00A4B5B681878084B1B685979084B2B
:102220000122FFF7C9F80346002B02D04FF0FF331D
:1022300000E0002318460837BD4680BD040000209A
:102240001400002080B483B000AF7860164B1B7A76
:10225000032B1ED801A252F823F000BF6D22000804
:10226000752200087F220008892200087B68FA2274
:102270001A8012E07B684FF4FA721A800DE07B68D6
:102280004FF47A721A8008E07B684FF4FA621A8081
:1022900003E07B6800221A8000BF002318460C3739
:1022A000BD465DF8047B70470400002080B584B013
:1022B00000AF0346FB80254B9B7A002B02D14FF0E9
:1022C000FF333FE0FB88B3F5FA7F0FD0B3F5FA7F19
:1022D00002DCFA2B07D012E0B3F57A7F09D0B3F510
:1022E000FA6F09D00BE00023FB730BE00823FB73AC
:1022F00008E01023FB7305E01823FB7302E04FF0A6
:10230000FF331FE0114B1A7AFB7BDB08DBB29A42EA
:1023100001D1002316E00D4B5B6818780B4B1B684E
:10232000997907F10F030122FFF746F80346002BC6
:1023300002D04FF0FF3305E0FB7BDB08DAB2034B42
:102340001A72002318461037BD4680BD04000020D5
:1023500080B483B000AF7860194B5B7A032B1BD835
:1023600001A252F823F000BF79230008812300085E
:1023700089230008912300087B6802221A700EE06E
:102380007B6804221A700AE07B6808221A7006E053
:102390007B6810221A7002E04FF0FF330AE0084B0E
:1023A000DB7C002B05D07B681B785B00DAB27B6896
:1023B0001A70002318460C37BD465DF8047B704741
:1023C0000400002080B584B000AF0346FB71304BA1
:1023D0009B7A002B02D14FF0FF3354E0FB79023B94
:1023E0000E2B2DD801A252F823F000BF292400089B
:1023F000412400082F24000841240008412400083B
:102400004124000835240008412400084124000824
:102410004124000841240008412400084124000808
:10242000412400083B2400080023FB730BE0082331
:10243000FB7308E01023FB7305E01823FB7302E035
:102440004FF0FF331FE0124B5A7AFB7BDB08DBB205
:102450009A4201D1002316E00D4B5B6818780C4BB3
:102460001B68D97907F10F030122FEF7A5FF034688
:10247000002B02D04FF0FF3305E0FB7BDB08DAB224
:10248000034B5A72002318461037BD4680BD00BF6B
:102490000400002080B483B000AF78601B4BDB7A6F
:1024A000013B052B26D801A252F823F0C5240008D1
:1024B000CD240008D5240008DD240008E524000808
:1024C000ED2400087B68BC221A8017E07B6862223A
:1024D0001A8013E07B682A221A800FE07B6814229E
:1024E0001A800BE07B680A221A8007E07B680522CD
:1024F0001A8003E07B6800221A8000BF0023184680
:102500000C37BD465DF8047B704700BF0400002017
:1025100080B584B000AF0346FB80234B9B7A002B31
:1025200002D14FF0FF333BE0FB88BB2B02D90123E4
:10253000FB7319E0FB88612B02D90223FB7313E0C4
:10254000FB88292B02D90323FB730DE0FB88132B97
:1025500002D90423FB7307E0FB88092B02D905236A
:10256000FB7301E00623FB730F4BDA7AFB7B9A4285
:1025700001D1002314E00C4B5B6818780A4B1B68F0
:10258000997807F10F030122FEF716FF0346002B8F
:1025900002D04FF0FF3303E0FA7B034BDA720023E3
:1025A00018461037BD4680BD0400002080B483B0BB
:1025B00000AF7860094B93F82430002B02D04FF025
:1025C000FF3304E0054BDA897B681A800023184644
:1025D0000C37BD465DF8047B704700BF0400002047
:1025E00080B584B000AF0346FB80334B9B7A002B51
:1025F00002D14FF0FF335BE02F4B93F82430002BD8
:1026000002D04FF0FF3353E02B4B1B7D002B0ED03D
:10261000FB88002B08D0FB88282B05D8FB881846A0
:10262000FFF7C8FB002343E00020FFF7C3FBFB8854
:10263000032B02D80423FB8006E0FB88B3F57A7FE6
:1026400002D94FF47A73FB80FB884FF47A7292FBC5
:10265000F3F3DBB2013BDBB2FB73174B5B6818781B
:10266000154B1B68597807F10F030122FEF7A4FEF2
:102670000346002B02D04FF0FF3319E0FB7B013300
:102680004FF47A7292FBF3F39AB20B4BDA810A4B56
:102690001B8D642B28BF64239BB2184600F00EF8F4
:1026A000054BDB895B089BB21846FFF731FF00231F
:1026B00018461037BD4680BD0400002080B584B0A8
:1026C00000AF0346FB80FB88002B07D01A4BDB8949
:1026D000FA889A4202D8FB88642B02D94FF0FF3364
:1026E00026E0154BDA89FB88B2FBF3F39BB2DBB231
:1026F000013BDBB2FB73104B5B6818780E4B1B6819
:1027000093F8241007F10F030122FEF755FE03464C
:10271000002B02D04FF0FF330AE0074BDB891A464B
:10272000FB7B013392FBF3F39AB2034B1A85002330
:1027300018461037BD4680BD0400002080B483B029
:1027400000AF7860144B1B7A032B1BD801A252F800
:1027500023F000BF652700086D27000875270008D3
:102760007D2700087B680D4A1A600EE07B680C4AE2
:102770001A600AE07B680B4A1A6006E07B680A4A26
:102780001A6002E04FF0FF3300E0002318460C37D8
:10279000BD465DF8047B7047040000200000034341
:1027A00000008342333303423333834180B483B028
:1027B00000AF78601B4B5B7A032B1FD801A252F845
:1027C00023F000BFD5270008DF270008E92700080D
:1027D000F32700087B684FF480421A8011E07B6881
:1027E0004FF400521A800CE07B684FF480521A803C
:1027F00007E07B684FF400621A8002E04FF0FF337D
:102800000AE0084BDB7C002B05D07B681B885B084B
:102810009AB27B681A80002318460C37BD465DF8D3
:10282000047B70470400002080B483B000AF786060
:10283000054B1A7C7B681A70002318460C37BD467E
:102840005DF8047B704700BF0400002080B584B0B1
:1028500000AF0346FB710023FB60FB7923F001030B
:10286000FB71224B93F82430002B01D0002338E079
:102870001E4B9B7A002B02D14FF0FF3331E01B4BF4
:102880001B7CFB72194B9A7AFB791340DAB2174B17
:102890001A74164B1B7CFA799A4203D04FF0FF331F
:1028A000FB6001E00023FB60FB79002B03D10F4BA1
:1028B0001B7D002B03D00120FFF722F902E000204E
:1028C000FFF71EF9FB79002B0AD0FFF7B7FB034691
:1028D000002B05D0054AFB7A13744FF0FF3300E05C
:1028E000FB6818461037BD4680BD00BF04000020BD
:1028F00080B584B000AF0346FB71FB7903F0700331
:10290000002B02D00123FB7307E0FB79002B02D0E0
:102910000023FB7301E04023FB73634B5B68187873
:10292000614B1B68597D07F10F030122FEF744FD3F
:102930000346002B05D05C4B00229A724FF0FF3308
:10294000AEE0FB7B23F04003DAB2574B1A7300234F
:10295000FB73FB7903F04003002B04D1FB7B43F0B6
:102960000403DBB2FB73FB7903F02003002B04D1DB
:10297000FB7B43F00203DBB2FB73FB7903F0100334
:10298000002B04D1FB7B43F00103DBB2FB73FB792B
:1029900003F00803002B04D1FB7B43F03803DBB2C8
:1029A000FB73414B5B6818783F4B1B68997D07F1BF
:1029B0000F030122FEF700FD0346002B05D03A4B22
:1029C00000229A724FF0FF336AE0FB79002B05D0AA
:1029D000FB79082B02D0002000F044FB324B5B68EF
:1029E0001878314B1B68197907F10E030122FEF7A5
:1029F00017FD0346002B02D04FF0FF3350E0FB7968
:102A000003F00103002B07D01123FB73BB7B43F0C2
:102A10002003DBB2BB7306E01023FB73BB7B23F008
:102A20002003DBB2BB73204B93F82430002B05D07E
:102A3000BB7B63F07F03DBB2BB7304E0BB7B03F0C3
:102A40007F03DBB2BB73184B5B681878164B1B68AF
:102A500093F8261007F10F030122FEF7ADFC0346A1
:102A6000002B02D04FF0FF331AE00F4B5B68187851
:102A70000D4B1B68197907F10E030122FEF79CFC30
:102A80000346002B02D04FF0FF3309E0064AFB79E2
:102A90009372054B00221A75322002F025FE0023A6
:102AA00018461037BD4680BD0400002080B58AB0AE
:102AB00000AFF860B9607A603B60002387F8273088
:102AC0000023BB844F4B93F82430002B02D04FF0EF
:102AD000FF337DE13B6800221A704A4B9B7A002B42
:102AE00002D14FF0FF3373E1464B1B7C002B02D128
:102AF0004FF0FF336CE1434B1B7C03F04003002B92
:102B000004D097F82730023387F827303D4B1B7CE1
:102B100003F02003002B04D097F82730023387F806
:102B20002730384B1B7C03F01003002B04D097F8A0
:102B30002730023387F82730324B1B7C03F0080321
:102B4000002B04D097F82730063387F827302D4B19
:102B50005B6818782B4B1B68197B07F11403022262
:102B6000FEF75EFC0346002B02D04FF0FF332FE14F
:102B70003B7D1B021AB27B7D1BB213431BB27B84CD
:102B800097F827309BB27A8C9A4201D200231FE13A
:102B90001C4B5B685B885B089BB27A8C9A421AD9A3
:102BA000184B5B681878174B1B68D97C07F1140326
:102BB0000122FEF735FC0346002B02D04FF0FF3315
:102BC00006E13B7D03F01003002B04D0FFF736FA3B
:102BD0006FF00103FCE0786802F09AFD094B5B6836
:102BE0001878084B1B68597B97F827309AB207F181
:102BF0001403FEF715FC0346002B05D04FF0FF33FE
:102C0000E6E000BF040000207A8C97F8273092FBA2
:102C1000F3F3DBB2013BDAB23B6B1A703B68002284
:102C20001A7097F827309BB2BA8C9A424FD06A4BF1
:102C30001B7C03F00803002B49D0BB8C07F1280252
:102C4000134413F8143C1B021AB2BB8C013307F176
:102C500028010B4413F8143C1BB213431AB2BB688F
:102C60001A80BB680233BA8C023207F128010A4489
:102C700012F8142C120211B2BA8C033207F1280098
:102C8000024412F8142C12B20A4312B21A80BB6822
:102C90000433BA8C043207F128010A4412F8142CC8
:102CA000120211B2BA8C053207F12800024412F860
:102CB000142C12B20A4312B21A803B681B7843F0FC
:102CC0000803DAB23B681A70BB8C0633BB8497F8F2
:102CD00027309BB2BA8C9A4223D03F4B1B7C03F027
:102CE0004003002B1DD0BB8C07F12802134413F8BE
:102CF000143C1B021AB2BB8C013307F128010B44B0
:102D000013F8143C1BB213431AB2FB681A803B68D9
:102D10001B7843F04003DAB23B681A70BB8C023375
:102D2000BB8497F827309BB2BA8C9A4224D02A4BA6
:102D30001B7C03F02003002B1ED0FB680233BA8CEF
:102D400007F128010A4412F8142C120211B2BA8CAD
:102D5000013207F12800024412F8142C12B20A437F
:102D600012B21A803B681B7843F02003DAB23B684A
:102D70001A70BB8C0233BB8497F827309BB2BA8C95
:102D80009A4224D0144B1B7C03F01003002B1ED05E
:102D9000FB680433BA8C07F128010A4412F8142C9A
:102DA000120211B2BA8C013207F12800024412F863
:102DB000142C12B20A4312B21A803B681B7843F0FB
:102DC0001003DAB23B681A70BB8C0233BB84002359
:102DD00018462837BD4680BD0400002080B586B067
:102DE00000AF0346B9607A60FB813A4B93F8243018
:102DF000002B02D14FF0FF3367E0364B9B7A002B5C
:102E000002D14FF0FF3360E0324B5B681878314BF2
:102E10001B68197B07F114030222FEF701FB03462E
:102E2000002B02D04FF0FF334FE03B7D1B021AB264
:102E30007B7D1BB213431BB2FB82FA8AFB899A4249
:102E400005D27B6800221A704FF0FF333DE0214B22
:102E50005B685B885B089BB2FA8A9A421AD91D4B61
:102E60005B6818781B4B1B68D97C07F1140301229F
:102E7000FEF7D6FA0346002B02D04FF0FF3324E0D2
:102E80003B7D03F01003002B04D0FFF7D7F86FF061
:102E900001031AE00F4B5B6818780E4B1B68597BD7
:102EA000FA89BB68FEF7BCFA0346002B02D04FF04C
:102EB000FF330AE0FA8AFB89B2FBF3F39BB2DBB281
:102EC000013BDAB27B681A70002318461837BD46FA
:102ED00080BD00BF0400002080B584B000AF034671
:102EE000FB715F4B9B7CFA799A4201D10023B2E0DF
:102EF000FB79002B50D05A4B5B681878584B1B68F5
:102F0000197907F10F030122FEF78AFA0346002B15
:102F100002D04FF0FF339EE0FB7B23F02003DBB2B7
:102F2000FB734F4B5B6818784D4B1B68197907F1A1
:102F30000F030122FEF740FA0346002B02D04FF0A8
:102F4000FF3388E0032002F0CFFB0223FB73444BE6
:102F500093F82230002B04D0FB7B63F07F03DBB2BD
:102F6000FB733F4B93F82330002B04D0FB7B43F0E3
:102F70003003DBB2FB733A4B5B681878384B1B6845
:102F8000D97D07F10F030122FEF716FA0346002B45
:102F90005DD04FF0FF335EE0314B5B681878304B0B
:102FA0001B68197907F10F030122FEF739FA03466E
:102FB000002B02D04FF0FF334DE0294B9B7A03F0FA
:102FC0000103002B05D0FB7B43F02003DBB2FB7336
:102FD00004E0FB7B23F02003DBB2FB73204B5B6838
:102FE00018781F4B1B68197907F10F030122FEF7B0
:102FF000E3F90346002B02D04FF0FF332BE0032010
:1030000002F072FB164B93F82230002B02D0802383
:10301000FB7301E00023FB73114B93F82330002B6B
:1030200004D0FB7B43F03003DBB2FB730C4B5B68DB
:1030300018780B4B1B68D97D07F10F030122FEF7AF
:10304000BBF90346002B02D04FF0FF3303E0044AE4
:10305000FB799374002318461037BD4680BD00BF2E
:103060000400002080B584B000AF0346FB711E4B06
:1030700093F82330FA799A4201D1002330E0FB79AA
:10308000002B02D03023FB7301E00023FB73164BAF
:103090009B7C002B04D0FB7B43F00203DBB2FB7371
:1030A000114B93F82230002B04D0FB7B63F07F039D
:1030B000DBB2FB730C4B5B6818780B4B1B68D97D3C
:1030C00007F10F030122FEF777F90346002B02D028
:1030D0004FF0FF3304E0044AFB7982F823300023E9
:1030E00018461037BD4680BD0400002080B584B06E
:1030F00000AF0A23FB730723BB600120FFF7ECFE40
:1031000010233B705A4B93F82A003B4601220A21B8
:10311000FEF752F90346002B01D00723A4E0402319
:103120003B70534B93F82A003B4601220C21FEF7DB
:1031300043F90346002B76D118233B704C4B93F890
:103140002A003B4601220A21FEF736F90346002BEE
:103150006BD10A2002F0C8FA454B93F82A003B468F
:1031600001220221FEF75CF90346002B5FD13B7878
:1031700003F00103002B05D1FB7B5A1EFA73002BD1
:10318000E7D100E000BF3B7803F00103002B50D0F3
:10319000374B93F82A003B4606220321FEF740F9FD
:1031A0000346002B47D10023BB607B781B021AB279
:1031B0003B781BB21343FB80B7F90630C82B04DC05
:1031C000B7F9063013F1C80F03DABB6843F0010307
:1031D000BB60FB781B021AB2BB781BB21343FB80A7
:1031E000B7F90630C82B04DCB7F9063013F1C80F65
:1031F00003DABB6843F00203BB607B791B021AB29F
:103200003B791BB21343FB80B7F9063013F5487FB7
:1032100004DCB7F9063013F5486F0DDABB6843F0EC
:103220000403BB6008E000BF06E000BF04E000BF8D
:1032300002E000BF00E000BF10233B700C4B93F88E
:103240002A003B4601220C21FEF7B6F810233B7002
:10325000074B93F82A003B4601220A21FEF7ACF8FF
:103260000020FFF739FEBB6818461037BD4680BD09
:10327000040000202DE9B04F9AB006AFF860B960A5
:103280007A600023BB6400237B64C54B5B681878BD
:1032900007F1100303220D21FEF7C2F80346002BAD
:1032A00009D07B68002B04D0BE4A0021042007F01F
:1032B000CDFA07236BE27B68002B0BD03B7C1946D1
:1032C0007B7CBA7C019200930B46B74A0021042014
:1032D00007F0BCFA0023FB6454E007F11002FB6C1A
:1032E00013441B78002B3FD007F11002FB6C1344F2
:1032F0001B78013BAD4A32F8133007EE903AF8EEF6
:10330000677AFB6C9B0007F1500213443C3BC3ED12
:10331000007AFB6C9B0007F1500213443C3BD3ED59
:10332000007A9FEDA37A67EE877AFB6C9B0007F12A
:10333000500213443C3BC3ED007AFB6C9B0007F149
:10334000500213443C3BD3ED006ADFED9A7AB8EEAD
:10335000677AC6EE877AFB6C9B0007F15002134434
:103360003C3BC3ED007A0AE0FB6C9B0007F1500286
:1033700013443C3B4FF000021A6001237B64FB6C5A
:103380000133FB64FB6C022BA7DD7B6C002B40F050
:10339000D3807B68002B04D0874A0021042007F0EB
:1033A00055FA0023FB64C2E0FB6C9B00BA6813442F
:1033B0001A68FB6C9B00F9680B441B68D31A07EE74
:1033C000903AF8EEE77AFB6C9B0007F15002134449
:1033D000243BC3ED007A7B68002B47D0FB6C9B003D
:1033E00007F150021344243B1B68184610F054FCAC
:1033F00080468946FB6C9B00FA6813441B6807EE05
:10340000903AF8EEE77A17EE900A10F045FC824603
:103410008B46FB6C9B00BA6813441B6807EE903A1E
:10342000F8EEE77A17EE900A10F036FC02460B46EB
:10343000CDE90423CDE902ABCDE900895F4A002143
:10344000042007F003FAFB6C9B0007F150021344C1
:103450003C3B1B68184610F01FFC02460B46CDE9AA
:103460000023574A0021042007F0F0F9FB6C9B0071
:1034700007F150021344243BD3ED006AFB6C9B0020
:1034800007F1500213443C3B93ED007AC6EE877A75
:10349000B7EE007A77EEC77AFB6C9B0007F150021B
:1034A0001344303BC3ED007A7B68002B1BD0FB6CD0
:1034B0009B0007F150021344303B1B68184610F084
:1034C000EBFB804689464FF07C53184610F0E4FB36
:1034D00002460B46CDE90223CDE90089394A002195
:1034E000042007F0B3F9FB6C9B0007F15002134472
:1034F000303BD3ED007AF0EEE77AB6EE007AF4EEE8
:10350000C77AF1EE10FA0FDD7B68002B05D0FB6C5B
:103510002D4A0021042007F099F90122FB6C02FAE0
:1035200003F3BA6C1343BB64FB6C0133FB64FB6CA9
:10353000022B7FF739AFD7E09FED247ADFED1C7ABD
:1035400067EE277AC7ED107A9FED217ADFED187AC2
:1035500067EE277AC7ED0F7A7B68002B1CD01D4AD7
:103560000021042007F072F9386C10F095FB024638
:103570000B46CDE90023184A0021042007F066F924
:10358000F86B10F089FB02460B46CDE90023134A85
:103590000021042007F05AF90023FB64A0E000BFDB
:1035A000040000207C8B01089C8B01087C890108A9
:1035B0000000804700400000B48B0108C88B010860
:1035C000FC8B0108108C0108308C01086666663E91
:1035D000CDCC2C3F488C01085C8C01086C8C010818
:1035E000FB6C9B00BA6813441A68FB6C9B00F9687B
:1035F0000B441B68D31A07EE903AF8EEE77AFB6C9F
:103600009B0007F150021344243BC3ED007A7B6812
:10361000002B34D0FB6C9B0007F150021344243B79
:103620001B68184610F038FB80468946FB6C9B00EF
:10363000BA6813441B6807EE903AF8EEE77A17EE83
:10364000900A10F029FB82468B46FB6C9B00FA68BF
:1036500013441B6807EE903AF8EEE77A17EE900AEB
:1036600010F01AFB02460B46CDE90423CDE902AB6C
:10367000CDE90089484A0021042007F0E7F8FB6CF7
:103680009B0007F150021344243B93ED007AD7EDE1
:10369000107AB4EEE77AF1EE10FA0ED4FB6C9B00D0
:1036A00007F150021344243B93ED007AD7ED0F7AD3
:1036B000B4EEE77AF1EE10FA0FDD7B68002B05D04F
:1036C000FB6C364A0021042007F0C0F80122FB6C95
:1036D00002FA03F3BA6C1343BB64FB6C0133FB6463
:1036E000FB6C022B7FF77CAFBB6C002B4ED1B6EE90
:1036F000007ADFED2B7A67EE277AC7ED0E7A7B68CA
:10370000002B0BD0B86B10F0C7FA02460B46CDE980
:103710000023244A0021042007F098F80023FB64CA
:1037200031E0FB6C9B00FA6813441B68184610F0EC
:10373000A1FA02460B46144623F00045B86B10F080
:10374000ABFA02460B462046294610F089FD034697
:10375000002B15D07B68002B0BD0FB6C9B00FA680C
:1037600013441B680093FB6C0F4A0021042007F0F0
:103770006DF80122FB6C02FA03F3BA6C1343BB64CD
:10378000FB6C0133FB64FB6C022BCADDBB6C18467F
:103790005037BD46BDE8B08F7C8C0108A48C010871
:1037A00000008047D08C0108F88C01082DE9B04F4B
:1037B0009AB006AFF860B9607A600023BB6400235A
:1037C0007B64B94B5B68187807F11403032200216E
:1037D000FDF726FE0346002B09D07B68002B04D0A2
:1037E000B24A0021042007F031F807233FE27B684A
:1037F000002B0BD03B7D19467B7DBA7D0192009357
:103800000B46AB4A0021042007F020F80023FB649C
:1038100054E007F11402FB6C13441B78002B3FD0DB
:1038200007F11402FB6C13441B78013BA14A32F8E8
:10383000133007EE903AF8EE677AFB6C9B0007F1C5
:1038400050021344383BC3ED007AFB6C9B0007F138
:1038500050021344383BD3ED007A9FED977A67EE20
:10386000877AFB6C9B0007F150021344383BC3ED91
:10387000007AFB6C9B0007F150021344383BD3EDF8
:10388000006ADFED8E7AB8EE677AC6EE877AFB6C57
:103890009B0007F150021344383BC3ED007A0AE065
:1038A000FB6C9B0007F150021344383B4FF00002C1
:1038B0001A6001237B64FB6C0133FB64FB6C022BFD
:1038C000A7DD7B6C002B40F0CF807B68002B04D001
:1038D0007B4A0021042006F0B9FF0023FB64BEE010
:1038E000FB6C9B00BA6813441A68FB6C9B00F96878
:1038F0000B441B68D31A07EE903AF8EEE77AFB6C9C
:103900009B0007F150021344203BC3ED007A7B6813
:10391000002B47D0FB6C9B0007F150021344203B67
:103920001B68184610F0B8F980468946FB6C9B006E
:10393000FA6813441B6807EE903AF8EEE77A17EE40
:10394000900A10F0A9F982468B46FB6C9B00BA687E
:1039500013441B6807EE903AF8EEE77A17EE900AE8
:1039600010F09AF902460B46CDE90423CDE902ABEB
:10397000CDE90089534A0021042006F067FFFB6C63
:103980009B0007F150021344383B1B68184610F0A7
:1039900083F902460B46CDE900234B4A002104205F
:1039A00006F054FFFB6C9B0007F150021344203BD0
:1039B000D3ED006AFB6C9B0007F150021344383BC7
:1039C00093ED007AC6EE877AFB6C9B0007F15002FC
:1039D00013442C3BC3ED007A7B68002B1BD0FB6C9F
:1039E0009B0007F1500213442C3B1B68184610F053
:1039F00053F9804689464FF07C53184610F04CF935
:103A000002460B46CDE90223CDE900892F4A002169
:103A1000042006F01BFFFB6C9B0007F150021344CF
:103A20002C3BD3ED007AF0EEE77AB6EE007AF4EEB6
:103A3000C77AF1EE10FA0FD57B68002B05D0FB6C2E
:103A4000234A0021042006F001FF0122FB6C02FA48
:103A500003F3BA6C1343BB64FB6C0133FB64FB6C74
:103A6000022B7FF73DAFAFE09FED1A7ADFED127AC0
:103A700067EE277AC7ED107A7B68002B10D0164AC4
:103A80000021042006F0E2FE386C10F005F9024631
:103A90000B46CDE90023114A0021042006F0D6FE92
:103AA0000023FB648DE000BF040000207C8B010834
:103AB000208D01087C8901080000804783000000F8
:103AC000388D0108C88B0108FC8B0108108C010897
:103AD0004C8D010800007042648D0108788D01084A
:103AE000FB6C9B00BA6813441A68FB6C9B00F96876
:103AF0000B441B68D31A07EE903AF8EEE77AFB6C9A
:103B00009B0007F150021344203BC3ED007A7B6811
:103B1000002B34D0FB6C9B0007F150021344203B78
:103B20001B68184610F0B8F880468946FB6C9B006D
:103B3000BA6813441B6807EE903AF8EEE77A17EE7E
:103B4000900A10F0A9F882468B46FB6C9B00FA683D
:103B500013441B6807EE903AF8EEE77A17EE900AE6
:103B600010F09AF802460B46CDE90423CDE902ABEA
:103B7000CDE90089404A0021042006F067FEFB6C75
:103B80009B0007F150021344203B93ED007AD7EDE0
:103B9000107AB4EEE77AF1EE10FA0FD57B68002BBD
:103BA00005D0FB6C354A0021042006F04FFE0122AF
:103BB000FB6C02FA03F3BA6C1343BB64FB6C013376
:103BC000FB64FB6C022B8BDDBB6C002B4ED1B3EE88
:103BD000047ADFED2B7A67EE277AC7ED0F7A7B68E0
:103BE000002B0BD0F86B10F057F802460B46CDE9CE
:103BF0000023244A0021042006F028FE0023FB6451
:103C000031E0FB6C9B00FA6813441B68184610F007
:103C100031F802460B46144623F00045F86B10F0CD
:103C20003BF802460B462046294610F019FB034696
:103C3000002B15D07B68002B0BD0FB6C9B00FA6827
:103C400013441B680093FB6C0F4A0021042006F00C
:103C5000FDFD0122FB6C02FA03F3BA6C1343BB6453
:103C6000FB6C0133FB64FB6C022BCADDBB6C18469A
:103C70005037BD46BDE8B08F7C8C01088C8D0108A3
:103C800000008047B48D0108DC8D01082DE9F04F5C
:103C9000ADF51B7D06AF07F12404206007F120007D
:103CA0000160114607F11802136007F11F020B466D
:103CB00013700023C7F848320023C7F8403207F1D9
:103CC0003C020123137007F13C0200235370B14BF7
:103CD0005B681878AF4B1B68597D07F13C030222E3
:103CE000FDF76AFB0346002B03D04FF0FF3300F0D3
:103CF0007FBCC82001F0F8FC07F13C0200231370E0
:103D0000A44B5B681878A34B1B68597C07F13C03F4
:103D10000122FDF751FB0346002B03D04FF0FF3388
:103D200000F066BC9B4B5B6818789A4B1B6859790E
:103D300007F13C030122FDF73FFB0346002B03D0B4
:103D40004FF0FF3300F054BC924B5B681878914BF6
:103D50001B68597D07F13C030122FDF72DFB03464B
:103D6000002B03D04FF0FF3300F042BC894B5B685F
:103D70001878884B1B68997E07F13C030122FDF7F8
:103D80001BFB0346002B03D04FF0FF3300F030BC89
:103D9000804B5B6818787F4B1B68197907F13C03EF
:103DA0000122FDF709FB0346002B03D04FF0FF3340
:103DB00000F01EBC07F13C020C231370754B5B68CE
:103DC0001878744B1B68197907F13C030122FDF741
:103DD000F3FA0346002B03D04FF0FF3300F008BC8A
:103DE0000F2001F081FC6B4B5B6B5B7A07F13C02AF
:103DF0001370684B5B681878664B1B68997807F1FD
:103E00003C030122FDF7D8FA0346002B02D04FF005
:103E1000FF33EDE35F4B5B6B1B7A07F13C021370E2
:103E20005C4B5B6818785B4B1B68597807F13C0367
:103E30000122FDF7C1FA0346002B02D04FF0FF33F9
:103E4000D6E307F11F031B78002B09D0514B5B6BA6
:103E50009B7A63F01F03DBB207F13C02137005E0AD
:103E60004C4B5B6B9B7A07F13C021370494B5B68D0
:103E70001878484B1B68997907F13C030122FDF73C
:103E80009BFA0346002B02D04FF0FF33B0E307F15B
:103E90001F031B78002B09D03E4B5B6BDB7A63F072
:103EA0001F03DBB207F13C02137003E0002307F1AC
:103EB0003C021370374B5B681878364B1B68D97916
:103EC00007F13C030122FDF777FA0346002B02D0ED
:103ED0004FF0FF338CE3C823184601F005FC07F1CF
:103EE0003C02402313702B4B5B681878294B1B68EE
:103EF000197907F13C030122FDF75EFA0346002B16
:103F000002D04FF0FF3373E307F13C0278231370C4
:103F1000204B5B6818781F4B1B68597907F13C03ED
:103F20000122FDF749FA0346002B02D04FF0FF3380
:103F30005EE307F124031B68191D07F124031B68C6
:103F400003F108020023136013680B600A6807F18D
:103F500024031B681A6007F120031B68191D07F171
:103F600020031B6803F108020023136013680B6031
:103F70000A6807F120031B681A6007F118031B6821
:103F8000002B00F05281044A0021042006F05EFC60
:103F90004BE100BF04000020008E01080A231846F0
:103FA00001F0A2FBB54B5B681878B44B1B68197B1A
:103FB00007F13C030222FDF733FA0346002B02D03F
:103FC0004FF0FF3314E307F13C031B781B021AB2D6
:103FD00007F13C035B781BB213431BB2A7F83E32D8
:103FE000B7F83E32A64AA2FB0323DB089BB287F850
:103FF0004F32C8231A46D7F84832D21A97F84F32B0
:104000009A4206DAC822D7F84832DBB2D31A87F8C8
:104010004F3297F84F2213465B0013449B00C7F8BA
:104020004032964B5B681878944B1B68597BD7F8E5
:1040300040329AB207F13C03FDF7F2F90346002B38
:1040400002D04FF0FF33D3E20023C7F844320023FD
:1040500087F84E32DBE007F13C02D7F844321344D4
:104060001B781B0219B2D7F844325A1C07F13C03E3
:104070009B5C1BB20B431BB207F134021380D7F8D1
:104080004432023307F13C02D35C1B0219B2D7F869
:104090004432DA1C07F13C039B5C1BB20B431BB29E
:1040A00007F134025380D7F84432043307F13C025D
:1040B000D35C1B0219B2D7F844325A1D07F13C03F6
:1040C0009B5C1BB20B431BB207F13402938007F1D8
:1040D00020031B681A6807F13403B3F900301A444F
:1040E00007F120031B681A6007F120031B68191DE4
:1040F00007F120031B6804331A6807F13403B3F98E
:10410000023013440B6007F120031B6803F1080120
:1041100007F120031B6808331A6807F13403B3F969
:10412000043013440B60D7F84432063307F13C02E5
:10413000D35C1B0219B2D7F84432DA1D07F13C03F5
:104140009B5C1BB20B431BB207F12C021380D7F808
:104150004432083307F13C02D35C1B0219B2D7F892
:10416000443203F1090207F13C039B5C1BB20B4391
:104170001BB207F12C025380D7F844320A3307F1FF
:104180003C02D35C1B0219B2D7F8443203F10B0294
:1041900007F13C039B5C1BB20B431BB207F12C02E3
:1041A000938007F124031B681A6807F12C03B3F905
:1041B00000301A4407F124031B681A6007F1240336
:1041C0001B68191D07F124031B6804331A6807F1E3
:1041D0002C03B3F9023013440B6007F124031B686E
:1041E00003F1080107F124031B6808331A6807F17B
:1041F0002C03B3F9043013440B60D7F844320C336A
:10420000C7F8443297F84E32013387F84E3297F8A8
:104210004E2297F84F329A42FFF41DAF97F84F3273
:10422000D7F848221344C7F84832C8231A46D7F8AB
:1042300048329A423FF7B2AE07F118031B68002BD1
:1042400006D0D7F848320F4A0021042006F0FEFAC3
:1042500007F13C0200231370084B5B681878074B8A
:104260001B68597907F13C030122FDF7A5F80346C5
:10427000002B0BD04FF0FF33BAE100BF0400002049
:10428000ABAAAAAA1C8E01080000804707F12403EC
:104290001B681B684FEAE374260446EA13461D04B4
:1042A00083234FF000041A4623462846314610F077
:1042B0007DF903460C4618462146D7F848324FEAA6
:1042C000E3741A46234610F071F903460C461A4669
:1042D00007F124031B681A6007F124031B681D1DE6
:1042E00007F124031B6804331B684FEAE3744FEAA9
:1042F000044949EA13494FEA034883234FF0000475
:104300001A4623464046494610F050F903460C46EB
:1043100018462146D7F848324FEAE3741A46234636
:1043200010F044F903460C462B6007F124031B6888
:1043300003F1080507F124031B6808331B684FEAE3
:10434000E37422047A617A6942EA13427A611B04B7
:104350003B6183234FF000041A462346D7E904014A
:1043600010F024F903460C4618462146D7F8483287
:104370004FEAE3741A46234610F018F903460C4638
:104380002B6007F120031B681B684FEAE3742204CB
:10439000FA60FA6842EA1342FA601B04BB604FF409
:1043A00080434FF000041A462346D7E9020110F07B
:1043B000FDF803460C4618462146D7F848324FEA26
:1043C000E3741A46234610F0F1F803460C461A46E9
:1043D00007F120031B681A6007F120031B681D1DED
:1043E00007F120031B6804331B684FEAE3742204BF
:1043F0007A607A6842EA13427A601B043B604FF4A9
:1044000080434FF000041A462346D7E9000110F01C
:10441000CDF803460C4618462146D7F848324FEAF5
:10442000E3741A46234610F0C1F803460C462B608D
:1044300007F120031B6803F1080507F120031B683F
:1044400008331B684FEAE3744FEA044B4BEA134B03
:104450004FEA034A4FF480434FF000041A462346C4
:104460005046594610F0A2F803460C46184621461D
:10447000D7F848324FEAE3741A46234610F096F80C
:1044800003460C462B6007F120031B6808331B68AA
:10449000002B0CDD07F120031B68083307F1200215
:1044A000126808321268A2F580321A600BE007F138
:1044B00020031B68083307F12002126808321268D3
:1044C00002F580321A6007F118031B68002B00F018
:1044D0008E8007F11F031E7807F120031B681B68FD
:1044E00007EE903AF8EEE77A1FED997AC7EE876A01
:1044F00016EE900A0FF0D0FB04460D4607F120039C
:104500001B6804331B6807EE903AF8EEE77A1FED5C
:10451000A27AC7EE876A16EE900A0FF0BDFB8046BE
:10452000894607F120031B6808331B6807EE903AA1
:10453000F8EEE77A1FEDAC7AC7EE876A16EE900ABE
:104540000FF0AAFB02460B46CDE90423CDE9028910
:10455000CDE900453346294A0021042006F076F9CA
:1045600007F11F031E7807F124031B681B6807EE81
:10457000903AF8EEE77A9FED227AC7EE876A16EE58
:10458000900A0FF089FB04460D4607F124031B68CF
:1045900004331B6807EE903AF8EEE77A9FED187A3D
:1045A000C7EE876A16EE900A0FF076FB80468946C2
:1045B00007F124031B6808331B6807EE903AF8EEF6
:1045C000E77A9FED0F7AC7EE876A16EE900A0FF032
:1045D00063FB02460B46CDE90423CDE90289CDE910
:1045E00000453346074A0021042006F02FF9002336
:1045F000184607F51577BD46BDE8F08F2C8E0108EB
:1046000000008047608E010880B590B000AFF86070
:10461000B9601346FB71022387F83630FB79002B13
:1046200004D0914A0021042006F010F98F4B93F832
:104630002430002B06D0002000F04CFA012387F82C
:10464000373002E0002387F8373007F114031846AB
:10465000FDF7F8FD07F117031846FDF779FE07F19E
:1046600010031846FDF716FF07F112031846FDF771
:104670009DFF7E4B9B7A87F8353007F1160318466D
:10468000FEF7D2F8FB79002B04D0794A00210420F0
:1046900006F0DCF80023FB630BE0FB790022B9682D
:1046A000F868FFF7F3FA0346002B08D0FB6B0133E1
:1046B000FB6397F83620FB6B9A42EEDC00E000BF0C
:1046C00097F83620FB6B9A420AD1FB79002B04D075
:1046D000684A0021042006F0B9F80023BB6380E09B
:1046E000FB79002B04D0644A0021042006F0AEF8C8
:1046F0000023FB630DE0FB7907F1180107F12400AB
:104700000122FFF7C3FA0346002B08D0FB6B0133ED
:10471000FB6397F83620FB6B9A42ECDC00E000BFAD
:1047200097F83620FB6B9A420AD1FB79002B04D014
:10473000524A0021042006F089F80023BB6350E0B0
:10474000FA7907F118031946B868FEF793FD034696
:1047500087F83430FB79002B06D097F83430484A7C
:104760000021042006F072F8FA7907F124031946B3
:10477000F868FFF71BF8034687F83330FB79002B06
:1047800006D097F833303F4A0021042006F05EF847
:104790000023BB6397F83330002B03D1BB6B43F08E
:1047A0000103BB6397F83430002B03D1BB6B43F09C
:1047B0000203BB63FEF79AFC034687F83230FB79AD
:1047C000002B06D097F832302F4A0021042006F043
:1047D0003DF897F83230002B03D1BB6B43F0040354
:1047E000BB63FB79002B04D0284A0021042006F08B
:1047F0002DF81E4BFF221A721C4BFF225A721B4BC4
:10480000FF22DA72194B4FF6FF72DA81174BFF2243
:104810009A72164BFF221A74144B01221A73BB8A28
:104820001846FDF743FDFB7D1846FDF7CBFD3B8A9F
:104830001846FDF76DFE7B8A1846FDF7D1FE97F806
:1048400035301846FEF754F8BB7D1846FDF7FEFFDD
:1048500097F83730002B02D0012000F03BF9BB6BFA
:1048600018464037BD4680BD948E010804000020E4
:10487000B08E0108C48E0108F48E01080C8F010867
:10488000408F0108608F01087C8F01089C8F010810
:1048900080B584B000AF03463A60FB800B46BB8016
:1048A0003B68002B02D14FF0FF333CE0204B9B7A5A
:1048B000002B02D14FF0FF3335E0FB881B0A9BB27F
:1048C000DBB23B73FB88DBB27B737B7B1A46BB8816
:1048D0001344174A52685289934202DD4FF0FF3366
:1048E00021E0134B5B681878114B1B68D97E07F1E8
:1048F0000C030222FCF760FD0346002B02D04FF0B0
:10490000FF3310E00A4B5B681878094B1B68197E6F
:10491000BA883B68FCF750FD0346002B02D04FF0ED
:10492000FF3300E0002318461037BD4680BD00BFAE
:104930000400002080B584B000AF03463A60FB80DD
:104940000B46BB803B68002B02D14FF0FF333CE0AD
:10495000204B9B7A002B02D14FF0FF3335E0FB88D0
:104960001B0A9BB2DBB23B73FB88DBB27B737B7BA6
:104970001A46BB881344174A52685289934202DD93
:104980004FF0FF3321E0134B5B681878114B1B6825
:10499000D97E07F10C030222FCF70EFD0346002B23
:1049A00002D04FF0FF3310E00A4B5B681878094BD8
:1049B0001B68197EBA883B68FCF732FD0346002B62
:1049C00002D04FF0FF3300E0002318461037BD46F9
:1049D00080BD00BF0400002080B58AB000AFB96080
:1049E00011461A460346FB810B46BB811346FB80EA
:1049F000374B93F82530002B02D04FF0FF3362E0A5
:104A0000BB68002B02D14FF0FF335CE00023FB8436
:104A100034E0FA89FB8CD31A102BA8BF1023BB8477
:104A2000FB8CBA681A44B98CFB8C1846FFF730FF30
:104A30000346002B02D04FF0FF3344E007F114028D
:104A4000B98CFB8C1846FFF775FF0346002B02D08C
:104A50004FF0FF3337E0FB8CBA681344BA8C07F190
:104A6000140118460FF0C4FF0346002B02D06FF06C
:104A7000010328E0FA8CBB8C1344FB84FA8CFB897D
:104A80009A42C6D3BB891B0A9BB2DBB23B74BB897B
:104A9000DBB27B740E4B5B6818780D4B1B68597F3B
:104AA00007F110030222FCF787FC0346002B02D01B
:104AB0004FF0FF3307E0064B012283F82520044A1C
:104AC000FB88D384002318462837BD4680BD00BF2D
:104AD0000400002080B584B000AF0346FB71264B74
:104AE00093F82430FA799A4201D1002340E0FB790F
:104AF000002B27D0204B93F82530002B02D14FF00C
:104B0000FF3335E00020FCF7FBFF0020FEF7E4F95F
:104B1000194BDB8C1846FDF763FD0023FB73164B26
:104B20005B68187807F10F0301222321FCF744FC8E
:104B3000114B012283F824200120FCF7E1FFFDF74F
:104B40007DFA14E00020FCF7DBFF0B4B1B7CFB73B2
:104B5000094B5B68187807F10F0301222321FCF74A
:104B60002BFC054B002283F82420FDF767FA002375
:104B700018461037BD4680BD0400002080B584B0C3
:104B800000AF0120FEF7A8F90C23FB730FE03B1DDB
:104B9000F87B01220021FCF743FCB860BB68002BC6
:104BA00002D13B79482B06D0FB7B0133FB73FB7BA7
:104BB0000F2BECD900E000BFFB7B0F2B07D98F4AEE
:104BC0000021062005F042FE4FF0FF3312E18C4A2F
:104BD000FB7B82F82A3010233B71894B93F82A0023
:104BE0003B1D01220A21FCF7E7FB0346002B02D004
:104BF0004FF0FF33FEE0012000F076FD1F233B71F4
:104C00007F4B93F82A003B1D01220A21FCF7D4FBBD
:104C10000346002B02D04FF0FF33EBE0012000F001
:104C200063FD774B93F82A003B1D03221021FCF70C
:104C3000F7FB0346002B02D04FF0FF33DAE03B795D
:104C40009BB280339BB21AB26D4B9A857B799BB233
:104C500080339BB21AB26A4BDA85BB799BB2803340
:104C60009BB21AB2664B1A8610233B71644B93F8C1
:104C70002A003B1D01220A21FCF79EFB0346002B64
:104C800002D04FF0FF33B5E0012000F02DFD0020F1
:104C9000FEF722F940233B71594B5B681878584B5B
:104CA0001B68997E3B1D0122FCF786FB0346002B07
:104CB00002D04FF0FF339DE0514B93F82A3063F060
:104CC0007F03DBB23B714E4B5B6818784C4B1B6823
:104CD000997F3B1D0122FCF76FFB0346002B02D09E
:104CE0004FF0FF3386E002233B71454B5B68187839
:104CF000434B1B68D97F3B1D0122FCF75DFB03463C
:104D0000002B02D04FF0FF3374E088233B713C4B03
:104D10005B6818783A4B1B6893F820103B1D012202
:104D2000FCF74AFB0346002B02D04FF0FF3361E053
:104D3000334B93F82A303B71314B5B681878304B1A
:104D40001B6893F821103B1D0122FCF735FB03463D
:104D5000002B02D04FF0FF334CE00A233B71284B6D
:104D60005B681878264B1B6893F822103B1D0122C4
:104D7000FCF722FB0346002B02D04FF0FF3339E053
:104D800081233B711E4B5B6818781D4B1B6893F8A1
:104D900023103B1D0122FCF70FFB0346002B02D022
:104DA0004FF0FF3326E011233B71154B5B681878F9
:104DB000134B1B6893F826103B1D0122FCF7FCFAED
:104DC0000346002B02D04FF0FF3313E003233B7167
:104DD0000B4B5B6818780A4B1B6893F827103B1D38
:104DE0000122FCF7E9FA0346002B02D04FF0FF3313
:104DF00000E0002318461037BD4680BDAC8F010887
:104E00000400002080B586B000AF78603960414B67
:104E10009B7A03F00103002B02D14FF0FF3374E0C3
:104E20003C4B5B6818783B4B1B6893F8281007F1E4
:104E30000C030822FCF7F4FA0346002B02D04FF0D3
:104E4000FF3362E03B7B03F00103002B04D03B7B8C
:104E500003F00203002B02D06FF0010355E0FB7C4E
:104E60005BB2002B02DA6FF002034EE0BB7B1B0249
:104E70001AB27B7B1BB213431AB27B681A807B6821
:104E800002333A7C120211B2FA7B12B20A4312B216
:104E90001A807B680433BA7C120211B27A7C12B297
:104EA0000A4312B21A807B68B3F900301A46194BD4
:104EB000B3F92C3003FB02F31B121AB27B681A8081
:104EC0007B6802337A680232B2F900201146114A37
:104ED000B2F92E2002FB01F2121212B21A807B6884
:104EE00004337A680432B2F900201146094AB2F953
:104EF000302002FB01F2121212B21A803B68002B22
:104F000002D0386800F004FC002318461837BD466C
:104F100080BD00BF0400002080B483B000AF786083
:104F2000054B5B689A897B681A80002318460C370A
:104F3000BD465DF8047B70470400002080B586B054
:104F400000AF0346FB800B467B7113467B807B885A
:104F5000002B00F0EE80FB88B3F57F7F02D9FF23A2
:104F6000FB7509E0FB88032B02D80123FB7503E0E6
:104F7000FB889B089BB2FB757B79002B01D1012339
:104F80007B717B88B3F5207F02D94FF0FF3336E188
:104F90009D4B5B7D002B23D19B4B93F82430002B42
:104FA00007D00020FFF796FD974B012283F82020C1
:104FB00003E0954B002283F820209448FDF742F946
:104FC0009348FDF7C5F99348FDF764FA9248FDF759
:104FD000EDFA8D4B9A7A8C4B9A779048FDF724FC2A
:104FE0000020FCF78DFD00233B7200237B7207231A
:104FF000BB72854B5B681878834B1B68197907F186
:1050000008030322FCF7D8F90346002B00D0A5E0E3
:10501000FB7D3B727C4B5B6818787B4B1B68997AF5
:1050200007F108030122FCF7C7F90346002B00D063
:1050300094E07B88012B02D102233B7232E07B8813
:10504000022B02D103233B722CE07B88052B02D874
:1050500004233B7226E07B880A2B02D805233B728F
:1050600020E07B88142B02D806233B721AE07B8851
:10507000282B02D807233B7214E07B88502B02D8E0
:1050800008233B720EE07B88A02B02D809233B72D9
:1050900008E07B88B3F5A07F02D80A233B7201E0C9
:1050A0000B233B72584B5B681878574B1B68597A37
:1050B00007F108030122FCF77FF90346002B00D01B
:1050C0004CE0C0233B72504B5B6818784E4B1B681A
:1050D000197D07F108030122FCF76EF90346002B46
:1050E00000D03BE020233B72474B5B681878464B6F
:1050F0001B68597D07F108030122FCF75DF903469F
:10510000002B00D02AE040233B723F4B5B681878AD
:105110003D4B1B68597C07F108030122FCF74CF951
:105120000346002B00D019E0374B01225A750023AB
:1051300065E0364BFB6000233B6109E0FA683B69A0
:1051400013441B78002B00D008E03B6901333B611E
:105150003B690B2BF2D94FF0FF3350E02A4BFF2273
:105160001A72294BFF225A72274BFF22DA72264B02
:105170004FF6FF72DA81244BFF229A72224BFF22F4
:105180001A74214B01221A731F4B9B7F1846FDF79F
:10519000AFFB1D4BDB8A1846FDF788F81A4B1B7EC8
:1051A0001846FDF70FF9184B5B8B1846FDF7B0F961
:1051B000154B9B8B1846FDF713FA134BDB7F1846F4
:1051C000FDF744FB104B93F82030002B02D0012058
:1051D000FFF780FC00233B720B4B5B6818780A4B8F
:1051E0001B68197D07F108030122FCF7E5F8034667
:1051F000002B00D0B2E7044B00225A75002318465A
:105200001837BD4680BD00BF040000201A000020F2
:105210001C0000201E000020200000202300002091
:1052200080B58AB000AF7860396000237B620023CC
:105230003B620023FB610023BB617B681B8A9BB23E
:105240007B627B6A23F440537B623B68DB881A46AF
:105250007B6A13437B627B6A9AB27B681A827B68A3
:105260009B899BB27B627B6A23F4B05323F00C03CF
:105270007B623B689A883B681B8913439AB23B6800
:105280005B8913439BB21A467B6A13437B627B6A3A
:105290009AB27B689A817B689B8A9BB27B627B6AAD
:1052A00023F440737B623B689B891A467B6A1343F5
:1052B0007B627B6A9AB27B689A8207F10803184680
:1052C00001F024FD7B68304A934203D07B682F4A6B
:1052D000934202D17B693B6201E03B693B627B68A0
:1052E0009B899BB21BB2002B0CDA3A6A13469B00D7
:1052F00013449A001A443B681B685B00B2FBF3F34B
:10530000FB610BE03A6A13469B0013449A001A446F
:105310003B681B689B00B2FBF3F3FB61FB691C4A13
:10532000A2FB03235B091B017B627B6A1B096422CE
:1053300002FB03F3FA69D31ABB617B689B899BB2BA
:105340001BB2002B0CDABB69DB003233104AA2FB24
:1053500003235B0903F007037A6A13437B620BE0C4
:10536000BB691B0132330A4AA2FB03235B0903F02A
:105370000F037A6A13437B627B6A9AB27B681A8155
:1053800000BF2837BD4680BD001001400014014019
:105390001F85EB5180B483B000AF78600B46FB7083
:1053A000FB78002B08D07B689B899BB243F40053A9
:1053B0009AB27B689A8107E07B689B899BB223F451
:1053C00000539AB27B689A8100BF0C37BD465DF8E6
:1053D000047B704780B483B000AF78600B467B805D
:1053E0007B88C3F308039AB27B689A8000BF0C37AE
:1053F000BD465DF8047B704780B483B000AF786031
:105400007B689B889BB2C3F308039BB218460C379A
:10541000BD465DF8047B704780B487B000AF78600C
:105420000B467B8013467B7000233B610023FB60AF
:105430000023BB6000237B617B687B617B88DBB2E0
:105440005B09DBB23B617B8803F01F03FB60012239
:10545000FB6802FA03F3BB603B69012B03D17B6954
:105460000C337B6109E03B69022B03D17B6910336C
:105470007B6102E07B6914337B617B78002B06D073
:105480007B697A691168BA680A431A6006E07B6929
:105490007A691168BA68D2430A401A6000BF1C37A3
:1054A000BD465DF8047B704780B485B000AF78607E
:1054B0000B467B800023FB737B681B889AB27B883A
:1054C00013409BB2002B02D00123FB7301E00023A9
:1054D000FB73FB7B18461437BD465DF8047B7047B1
:1054E00080B487B000AF78600B467B800023FB6000
:1054F00000237B610023BB600023FB747B88DBB24D
:105500005B09DBB2BB607B8803F01F037B61012278
:105510007B6902FA03F37B61BB68012B07D17B68CF
:105520009B899BB21A467B6913407B6111E0BB6883
:10553000022B07D17B681B8A9BB21A467B691340FA
:105540007B6106E07B689B8A9BB21A467B691340AD
:105550007B617B881B0A9BB2FB600122FB6802FA1D
:1055600003F3FB607B681B889BB21A46FB68134001
:10557000FB607B69002B05D0FB68002B02D0012368
:10558000FB7401E00023FB74FB7C18461C37BD460E
:105590005DF8047B704700BF80B485B000AF7860D1
:1055A0000B467B800023FB810023BB817B881B0A89
:1055B000FB81FB89012202FA03F3BB81BB89DB4338
:1055C0009AB27B681A8000BF1437BD465DF8047B31
:1055D000704700BF80B483B000AF0346FB71044A3C
:1055E000FB79136000BF0C37BD465DF8047B704744
:1055F00020000E4280B483B000AF03463960FB71D7
:1056000097F90730002B0BDA0D49FB7903F00F03F4
:10561000043B3A68D2B21201D2B20B441A7609E0C6
:10562000084997F907303A68D2B21201D2B20B4456
:1056300083F8002300BF0C37BD465DF8047B70473C
:1056400000ED00E000E100E080B582B000AF7860DE
:105650007B68B3F1807F01D3012311E00A4A7B68A4
:1056600023F07F43013B53600F214FF0FF30FFF7E2
:10567000C1FF054B00229A60034B07221A600023EA
:1056800018460837BD4680BD10E000E080B500AF89
:1056900003F09CF9124B1B68124AA2FB03239B09DF
:1056A0001846FFF7D1FF0346002B00D0FEE7052088
:1056B000FCF70AFA01214FF0805001F001FC0120B3
:1056C000FFF788FF012001F0CBFB002001F0C8FBB1
:1056D00001F082FDFBF7E4FD00F0C4F800BF80BDDF
:1056E00068000020D34D621080B483B000AF7860B2
:1056F000064A7B68136000BF044B1B68002BFBD17C
:1057000000BF0C37BD465DF8047B7047E40B0020FA
:1057100080B483B000AF7860054B1A687B681A606C
:10572000002318460C37BD465DF8047B704700BF68
:10573000E00B002080B400AF064B1B68002B04D0A8
:10574000044B1B68013B034A136000BFBD465DF874
:10575000047B7047E40B002080B400AF044B1B684F
:105760000133034A136000BFBD465DF8047B7047F8
:10577000E00B002080B500AFFFF7DCFFFFF7ECFF88
:1057800000BF80BD80B500AF4FF4CC72002104484B
:105790000FF05EFA024B0C225A6000BF80BD00BFC2
:1057A000EC0B002080B487B000AFF860B9607A607D
:1057B0003B6000237B6110E029497A6913465B0056
:1057C00013449B000B44B0331A683B689A4201D1E2
:1057D00016233EE07B6901337B61214B1A687B69AC
:1057E0009A42E9DC1E4B1B68132B01DD162330E0C7
:1057F0001B4B1A681A4913465B0013449B000B4469
:10580000B0333A681A60164B1A6879681448134620
:105810005B0013449B000344A8331960104B1B68C2
:105820000F490233FA6841F823200D4B1B680C49DD
:105830001633BA6841F82320094B5A687B68134431
:105840000C33074A5360064B1B680133044A13604C
:10585000002318461C37BD465DF8047B704700BF27
:10586000EC0B002080B586B000AF0121012001F0D3
:1058700007FB0121102001F043FB072209211C48EE
:1058800002F08CFD07220A21194802F087FD02234D
:105890003B7102237B710023BB710023FB714FF42A
:1058A000C0633B603B461946114802F0E9FC4FF4E7
:1058B000E133BB600023BB810023FB8100233B82DB
:1058C0000023BB820C237B8207F108031946094899
:1058D000FFF7A6FC012240F225510648FFF79CFD88
:1058E00001210448FFF756FD00BF1837BD4680BDB3
:1058F000000002400010014080B582B000AF786027
:105900007B68DBB29BB219460748FFF763FD00BF17
:1059100040210548FFF7C8FD0346002BF8D07B68FF
:1059200018460837BD4680BD0010014080B588B0DC
:1059300004AFF860B9607A603B60FB6802933B6833
:1059400001937B680093BB68044A0021062004F0A1
:105950007DFF00BF1037BD4680BD00BFC08F01086E
:1059600080B500AFFFF70EFF01F00AFB0346002BE6
:105970000AD001F005FB2223154A1649FFF7D6FF8E
:1059800001F0FEFA034620E0FAF78EFC0346002BF6
:105990000AD0FAF789FC25230D4A0E49FFF7C6FF06
:1059A000FAF782FC034610E002F004FF0346002BE6
:1059B0000AD002F0FFFE2723054A0649FFF7B6FF8B
:1059C00002F0F8FE034600E00023184680BD00BF49
:1059D00038900108D88F010880B500AF01F03CFB7A
:1059E0000346002B0AD001F037FB4223054A064943
:1059F000FFF79CFF01F030FB034600E00023184650
:105A000080BD00BF48900108D88F010880B58AB0DA
:105A100000AFF860B9607A6007F110037A68B9687E
:105A20001846FBF7D9FA07F11C03184602F0BCFD33
:105A30003A69FB699B13D31A3B617A693B6A9B13F2
:105A4000D31A7B61BA697B6A9B13D31ABB613B692A
:105A500007EE903AF8EEE77A9FED127A67EE877AD2
:105A6000FB68C3ED007AFB6804337A6907EE902A7D
:105A7000F8EEE77A9FED0B7A67EE877AC3ED007A4E
:105A8000FB680833BA6907EE902AF8EEE77A9FEDD3
:105A9000057A67EE877AC3ED007A01231846283726
:105AA000BD4680BD0AE81C3980B588B000AFF860FB
:105AB000B9607A601D4B5B685AB2BB681A701B4BA9
:105AC0009A687B681A6007F11403184602F06CFDAF
:105AD0007B699B1307EE903AF8EEE77A9FED147A14
